:020000040000fa
:080000000002040000000000f2
:020000040000fa
:04000800c80200002a
:020000040000fa
:04000c00c802000026
:020000040000fa
:04001000c802000022
:020000040000fa
:04001400c80200001e
:020000040000fa
:04001800c80200001a
:020000040000fa
:04001c00c802000016
:020000040000fa
:04002000c802000012
:020000040000fa
:04002400c80200000e
:020000040000fa
:04002800c80200000a
:020000040000fa
:04002c00c802000006
:020000040000fa
:04003000c802000002
:020000040000fa
:04003400c8020000fe
:020000040000fa
:04003800c8020000fa
:020000040000fa
:04003c00c8020000f6
:020000040000fa
:04004000c8020000f2
:020000040000fa
:04004400c8020000ee
:020000040000fa
:04004800c8020000ea
:020000040000fa
:04004c00c8020000e6
:020000040000fa
:04005000c8020000e2
:020000040000fa
:04005400c8020000de
:020000040000fa
:04005800c8020000da
:020000040000fa
:04005c00c8020000d6
:020000040000fa
:04006000c8020000d2
:020000040000fa
:04006400c8020000ce
:020000040000fa
:04006800c8020000ca
:020000040000fa
:04006c00c8020000c6
:020000040000fa
:04007000c8020000c2
:020000040000fa
:04007400c8020000be
:020000040000fa
:04007800c8020000ba
:020000040000fa
:04007c00c8020000b6
:020000040000fa
:04008000c8020000b2
:020000040000fa
:04008400c8020000ae
:020000040000fa
:04008800c8020000aa
:020000040000fa
:04008c00c8020000a6
:020000040000fa
:04009000c8020000a2
:020000040000fa
:04009400c80200009e
:020000040000fa
:04009800c80200009a
:020000040000fa
:04009c00c802000096
:020000040000fa
:0400a000c802000092
:020000040000fa
:0400a400c80200008e
:020000040000fa
:0400a800c80200008a
:020000040000fa
:0400ac00c802000086
:020000040000fa
:0400b000c802000082
:020000040000fa
:0400b400c80200007e
:020000040000fa
:0400b800c80200007a
:020000040000fa
:0400bc00c802000076
:020000040000fa
:0400c000c802000072
:020000040000fa
:0400c400c80200006e
:020000040000fa
:0400c800c80200006a
:020000040000fa
:0400cc00c802000066
:020000040000fa
:0400d000c802000062
:020000040000fa
:0400d400c80200005e
:020000040000fa
:0400d800c80200005a
:020000040000fa
:0400dc00c802000056
:020000040000fa
:0400e000c802000052
:020000040000fa
:0400e400c80200004e
:020000040000fa
:0400e800c80200004a
:020000040000fa
:0400ec00c802000046
:020000040000fa
:0400f000c802000042
:020000040000fa
:0400f400c80200003e
:020000040000fa
:0400f800c80200003a
:020000040000fa
:0400fc00c802000036
:020000040000fa
:04010000c802000031
:020000040000fa
:04010400c80200002d
:020000040000fa
:04010800c802000029
:020000040000fa
:04010c00c802000025
:020000040000fa
:04011000c802000021
:020000040000fa
:04011400c80200001d
:020000040000fa
:04011800c802000019
:020000040000fa
:04011c00c802000015
:020000040000fa
:04012000c802000011
:020000040000fa
:04012400c80200000d
:020000040000fa
:04012800c802000009
:020000040000fa
:04012c00c802000005
:020000040000fa
:04013000c802000001
:020000040000fa
:04013400c8020000fd
:020000040000fa
:04013800c8020000f9
:020000040000fa
:04013c00c8020000f5
:020000040000fa
:04014000c8020000f1
:020000040000fa
:04014400c8020000ed
:020000040000fa
:04014800c8020000e9
:020000040000fa
:04020800c802000028
:020000040000fa
:04020c00c802000024
:020000040000fa
:04021000c802000020
:020000040000fa
:04021400c80200001c
:020000040000fa
:04021800c802000018
:020000040000fa
:04021c00c802000014
:020000040000fa
:04022000c802000010
:020000040000fa
:04022400c80200000c
:020000040000fa
:04022800c802000008
:020000040000fa
:04022c00c802000004
:020000040000fa
:04023000c802000000
:020000040000fa
:04023400c8020000fc
:020000040000fa
:04023800c8020000f8
:020000040000fa
:04023c00c8020000f4
:020000040000fa
:04024000c8020000f0
:020000040000fa
:04024400c8020000ec
:020000040000fa
:04024800c8020000e8
:020000040000fa
:04024c00c8020000e4
:020000040000fa
:04025000c8020000e0
:020000040000fa
:04025400c8020000dc
:020000040000fa
:04025800c8020000d8
:020000040000fa
:04025c00c8020000d4
:020000040000fa
:04026000c8020000d0
:020000040000fa
:04026400c8020000cc
:020000040000fa
:04026800c8020000c8
:020000040000fa
:04026c00c8020000c4
:020000040000fa
:04027000c8020000c0
:020000040000fa
:04027400c8020000bc
:020000040000fa
:04027800c8020000b8
:020000040000fa
:04027c00c8020000b4
:020000040000fa
:04028000c8020000b0
:020000040000fa
:04028400c8020000ac
:020000040000fa
:04028800c8020000a8
:020000040000fa
:04028c00c8020000a4
:020000040000fa
:04029000c8020000a0
:020000040000fa
:04029400c80200009c
:020000040000fa
:04029800c802000098
:020000040000fa
:04029c00c802000094
:020000040000fa
:0402a000c802000090
:020000040000fa
:0402a400c80200008c
:020000040000fa
:0402a800c802000088
:020000040000fa
:0402ac00c802000084
:020000040000fa
:0402b000c802000080
:020000040000fa
:0402b400c80200007c
:020000040000fa
:0402b800c802000078
:020000040000fa
:0402bc00c802000074
:020000040000fa
:0402c000c802000070
:020000040000fa
:0402c400c80200006c
:020000040000fa
:0402c800c802000068
:020000040000fa
:0402cc00c802000064
:020000040000fa
:0402d000c802000060
:020000040000fa
:0402d400c80200005c
:020000040000fa
:0402d800c802000058
:020000040000fa
:0402dc00c802000054
:020000040000fa
:0402e000c802000050
:020000040000fa
:0402e400c80200004c
:020000040000fa
:0402e800c802000048
:020000040000fa
:0402ec00c802000044
:020000040000fa
:0402f000c802000040
:020000040000fa
:0402f400c80200003c
:020000040000fa
:0402f800c802000038
:020000040000fa
:0402fc00c802000034
:020000040000fa
:04030000c80200002f
:020000040000fa
:04030400c80200002b
:020000040000fa
:04030800c802000027
:020000040000fa
:04030c00c802000023
:020000040000fa
:04031000c80200001f
:020000040000fa
:04031400c80200001b
:020000040000fa
:04031800c802000017
:020000040000fa
:04031c00c802000013
:020000040000fa
:04032000c80200000f
:020000040000fa
:04032400c80200000b
:020000040000fa
:04032800c802000007
:020000040000fa
:04032c00c802000003
:020000040000fa
:04033000c8020000ff
:020000040000fa
:04033400c8020000fb
:020000040000fa
:04033800c8020000f7
:020000040000fa
:04033c00c8020000f3
:020000040000fa
:04034000c8020000ef
:020000040000fa
:04034400c8020000eb
:020000040000fa
:04034800c8020000e7
:020000040000fa
:100400000f8120000e7f22000e01880000000000f6
:10041000000020000000e000020032000001200087
:1004200020028800140007005b0007000000e000c5
:1004300003003a0080602000010020000200370025
:100440000000200001002000810f70000100320038
:1004500014000700000020000000e000020032004d
:100460000000020000000000ee0402000000000096
:100470000040da000000fe004440a9000000200017
:100480000000e0000300320000002000a00188000e
:100490004440a800000006008a1f78008b1f7800e7
:1004a0000000060091018800800478000000eb0045
:1004b0001a003700e284440032a0b4009905ba0063
:1004c000e284440032a0b4009906ba00e2844400f9
:1004d00032a0b4000006eb00476fde00fd07b2005b
:1004e000636ce10003003a00ebff07000000eb0043
:1004f0000a003700606ce10004003a00005deb0088
:100500008b05e900fdff3e00040037006168e10053
:10051000010032000086eb000b00070019c7ba008b
:100520001905ba000e04e00003003a000a00e000da
:10053000e0ff3a0000000600fe07b2009e018800be
:100540008a047800f5ff3700395dba008b05e900b1
:100550000c003200295dba008b05e900080032006a
:100560000c00e00003003a00e284440032a0b40032
:10057000f5ff370019ddba008b05e900faff3a00f4
:100580008904e800e184440032a0b40000000600c1
:0c0590000040da000000fe000000050042
:020000040000fa
:10059c000000fa00430107000080fa00000006008a
:1005ac000000fa0040c0b300190007000080fa00f8
:1005bc00000006000000fa0050c0b3001400070051
:1005cc000080fa00000006000200fa00004f7800dc
:1005dc001e80fb008000780060c0b3001b00070089
:1005ec000080fa00000006000000fa00e0c0b30032
:1005fc00070007000080fa00000006000000fa0067
:10060c00d0c0b300020007000080fa000000060012
:10061c000200fa00004f78008000eb001e407800ca
:10062c000a0007000080fa00000006000200fa0031
:10063c00000f78001e0078008000780030c0b300f6
:10064c00020007000080fa00000006000400fa0017
:10065c00004f780011079800908020001e48780009
:10066c00b18020001e009000070007006080200071
:10067c0014000700d18020000300070027000700aa
:10068c000080fa00000006000400fa00000f780059
:10069c00110798001e0078004800de0080407800aa
:1006ac001e009000014878001e0090000000e80039
:1006bc009e00780081407800014878000080fa00a4
:1006cc00000006000600fa00200798000000eb006e
:1006dc00000f780010002000100798000900370068
:1006ec001e009000ae00900000804000104078008a
:1006fc000080fb001e0f40001e0090000000e80070
:10070c00100798001e009000e60f5000f4ff340014
:10071c001e00ea000080fa00000006000000fa004b
:10072c00a100200060802000070107000080fa0073
:10073c00000006000000fa00a080200011c0b300e9
:10074c00014878000080fa00000006000000fa0062
:10075c00a08020008040eb00014878000080fa0067
:10076c00000006000000fa0021e3a8002023a900e5
:10077c002043a90001198000f0cf2f0000806000f9
:10078c000019880001198000000e20000100700083
:10079c00001988002223ef0025e3a900211980000d
:1007ac0000f021000100700020198800f0c1b30096
:1007bc0024e3b7000080fa00000006000600fa00ef
:1007cc00200798002023a80029e3a90028e3a9000a
:1007dc0021e3a8002d23a9002e00900000407800f2
:1007ec006f4060000080fb006f00600042198000c9
:1007fc0001ff2f008100610001007000401988008a
:10080c002023a80000000000001980006100600097
:10081c000000e000fcff32000000eb00000f78004d
:10082c000000eb001007980006003700001880004d
:10083c001e0f4000000000001e0090000000e800a9
:10084c00100798001e009000e40f5000f7ff3400d2
:10085c009e007800d0cc2c000008b8004208de00c6
:10086c00000f78002023a90021e3a9001e007800c6
:10087c000080fa00000006000800fa00000f780063
:10088c001107980022079800634798007447980056
:10089c001e0090009e007800808f500003003100f5
:1008ac009e009000010f7800060037002e0090008b
:1008bc009e007800808f5000020036002e019000c0
:1008cc00020f78001e0090009e0010007e409000e9
:1008dc000081fb006e4090000080fb000000510086
:1008ec000088b900800078002e0190001e00900056
:1008fc000000510000017800110009008280d8002e
:10090c00804078006e40900000c040000080fa00eb
:10091c00000006000000fa00cca2a8000080fa003b
:10092c00000006000000fa00cca2a9000080fa002a
:10093c00000006000000fa00903e20009fff070018
:10094c000040880000408000e4c1b3008041eb000f
:10095c00f23f20008000eb00c7ff070002e8b70061
:10096c0002c8bf00e84f4000170032003180200061
:10097c009140780002c8bf0080cf500012003200b6
:10098c0002c8bf000080fb008000e90003c8bf0064
:10099c000080fb00808f50000b00320002c8bf00ab
:1009ac000080fb008000e80003c8bf000080fb0053
:1009bc00808f50000400320002c8bf0003e8b7006b
:1009cc0002c8bf0000ff07000080fa00000006000c
:1009dc000000fa000080eb0060198800c002a8003b
:1009ec00c022a800c802a800c822a800c8a2a9005a
:1009fc00cca2a900e6fe07002135800000fe2f00e6
:100a0c00008060002001b300203588004136800052
:100a1c0000fe2f00008060003000b30040368800dc
:100a2c00c902a9004fff0700c2ff07001016800083
:100a3c00610060000000e00003003a00b5ff070011
:100a4c0010002000f9fe0700101680006200600004
:100a5c000000e00003003a00aeff07002000200079
:100a6c00f2fe070050168000610060000000e000fc
:100a7c0003003a00a7ff070030002000ebfe070040
:100a8c0050168000620060000000e00003003a0095
:100a9c00a0ff070040002000e4fe0700a1ff0700b4
:100aac00e1ff37000000fa0090012000401188009f
:100abc0021e2a80021a2a9002182a9002162a9009b
:100acc002122a9002102a90020e2a80020c2a9002d
:100adc0020a2a9002082a9002062a9000111800097
:100aec0090ff2f0000806000001188002002a900f8
:100afc0023e2a9001011800000d0a1001011880081
:100b0c002362a9002342a80011118000f0f32f00ea
:100b1c00008060001011880022a2a9002282a90086
:100b2c0041058000f0ff280000806000400588002f
:100b3c008560a9008580a9009560a9009580a90011
:100b4c000080fa00000006000600fa00100798006a
:100b5c00414798000040eb00004f78000d00370033
:100b6c001e80fb009e00900000804000104078002a
:100b7c000080fb0020118800000000001111800093
:100b8c0000102000008060000000e000fbff32003d
:100b9c001e4fe8004e4090009e40780080cf5000e1
:100bac00efff39000080fa00000006000000fa0098
:100bbc000000000010118000610060000000e000e7
:100bcc00fcff320030118000004078000080fa00f9
:100bdc00000006000200fa00004f78000000000040
:100bec001111800000102000008060000000e00067
:100bfc00fbff32001e00fb00201188000080fa0071
:040c0c0000000600de
:020000040000fa
:100c100000080000060000000000000006080000b8
:100c20000a000000020000007eff06000001000034
:0c0c300000000000ef00000000000000c9
:020000040000fa
:04aff800bfe80000ae
:020000040000fa
:04affc003f3f0000d3
:00000001FF
